:100000000C9432020C9438210C944F020C944F0241
:100010000C944F020C944F020C944F020C944F021C
:100020000C944F020C944F020C9480280C94542989
:100030000C945B230C944F020C944F020C944F02CF
:100040000C944F020C944F020C944F020C944F02EC
:100050000C944F020C94FE230C944F020C944F020C
:100060000C944F020C944F020C944F020C944F02CC
:100070000C944F020C944F020C944F020C944F02BC
:100080000C944F020C944F020C944F020C944F02AC
:100090000C944F020C944F020C944F020C944F029C
:1000A0000C944F020C944F020C944F0253616665FE
:1000B00074792064616E6365210029001E001F00B1
:1000C000200021002200490014001A640861156212
:1000D00017004C0004001664076809620A0001005A
:1000E0001D001B0006001900054200000000075714
:1000F000045702582A00000000005100520001512C
:100100002B002300240025002600270046001C00A9
:1001100018720C711264130001000B000D720E783E
:100120000F64035735001142100001570057025762
:1001300001002C001255055706570000000028004A
:10014000075750004F000000000029000100010087
:1001500001000100105001003A003B003C003D004E
:100160003E0001001E001F64206121622200010088
:100170000100010001000100010000000000010079
:100180000100010001000000000001000100010069
:1001900001000100010001000100010045003F00D5
:1001A00040004100420043004400230024722571B6
:1001B000266427000357010001000100010001002F
:1001C0000100010001000100010000000000010029
:1001D0000100010001000000000001000100010019
:1001E00001000100105001000000FB00ED00FC00C8
:1001F000F900F200F100EF00EE00F000FA0001005B
:1002000001000100010000000100000000000100E9
:100210000100010001000000000050004F0001003B
:1002200001000100010001000100010001004B007C
:100230004A0052004D00000001004E0050005100E5
:100240004F00000001000100F100F300F200010086
:100250000100010001000100010000000000010098
:1002600001005200510000000000000000000000EA
:1002700000002A2B28000000000000000000000001
:10028000000000000029000000002C1E3420212264
:1002900024342627252E362D3738271E1F202122CD
:1002A000232425263333362E37381F040506070846
:1002B000090A0B0C0D0E0F10111213141516171836
:1002C000191A1B1C1D2F3130232D35040506070874
:1002D000090A0B0C0D0E0F10111213141516171816
:1002E000191A1B1C1D2F3130354C00000000000076
:1002F00000000000000000000000000000000000FE
:1003000000000000000000000000000000007E0F60
:1003100000D4FFFFFFC7000000782C0344006100F9
:100320006300740079006C002D004D0061006E00C8
:10033000750066006F0072006D0020002800350017
:1003400078003600290000000E0374007300680076
:100350006F007200740000000403090409023B00EE
:10036000020100A0FA0904000001030101000921B3
:100370001101000122400007058103080001090462
:1003800001000103000000092111010001227B008E
:100390000705820320000112010002000000084D41
:1003A00044363501000102000105010902A1018561
:1003B000020901A100050919012908150025019567
:1003C00008750181020501093009311581257F95E4
:1003D000027508810609381581257F950175088108
:1003E00006050C0A38021581257F950175088106DE
:1003F000C0C005010980A101850319012AB70015B4
:100400000126B700950175108100C0050C0901A1F6
:1004100001850419012AA002150126A00295017583
:10042000108100C005010906A101050719E029E7AF
:100430001500250195087501810295017508810156
:100440000507190029FF150026FF0095067508818C
:100450000005081901290595057501910295017599
:10046000039101C011241FBECFEFDAE0DEBFCDBF84
:1004700012E0A0E0B1E0E4ECF7E502C005900D92D7
:10048000A239B107D9F723E0A2E9B2E001C01D9279
:10049000A63BB207E1F70E9402190C94CA2B0C94F8
:1004A0000000FC018081813021F487E30E9449072C
:1004B000089585EE0E94490783E3F8CFFC0180810F
:1004C000813021F486E30E944907089583E3FBCF3E
:1004D000FC018081813021F487E30E94DF070895C9
:1004E00085EE0E94DF0783E3F8CFFC018081813035
:1004F00021F486E30E94DF07089583E3FBCF809118
:10050000F0019091F10183309105B9F054F48130FC
:10051000910561F0029771F01092F1011092F001D3
:1005200008958430910559F00597B1F788E30E944A
:10053000DF07F2CF81EE0E94DF0781E3F8CF80E092
:100540000E94DF07F3CF8091ED019091EE0183309F
:100550009105C1F054F48130910561F0029771F07A
:100560001092EE011092ED0108958430910561F032
:100570000597B1F78DE20E94DF07F2CF81EE0E946E
:10058000DF07F8CF8EE2F7CF81EE0E94DF0785E329
:10059000F6CF8091EA019091EB018330910509F14A
:1005A00054F481309105C1F00297F1F01092EB0103
:1005B0001092EA01089584309105D1F00597B1F7C2
:1005C00081EE0E94DF0786E20E94DF0781EE0E9433
:1005D000DF0786E20E94DF0781EE0E94DF0786E2E6
:1005E00004C081EE0E94DF078FE20E94DF07DECFAA
:1005F00081EE0E94DF0786E3F8CF8091E7019091BA
:10060000E8018330910509F154F481309105C1F07E
:100610000297F1F01092E8011092E70108958430FA
:100620009105D1F00597B1F781EE0E94DF0787E2CF
:100630000E94DF0781EE0E94DF0787E20E94DF074A
:1006400081EE0E94DF0787E204C081EE0E94DF078F
:1006500080E30E94DF07DECF81EE0E94DF0787E3A1
:10066000F8CF8091E4019091E50183309105A9F0E4
:1006700054F481309105A1F00297B9F01092E50190
:100680001092E40108958430910561F00597B1F767
:1006900084E30E94DF0784E301C081EE0E94DF074C
:1006A00084E304C081EE0E94DF0785E30E94DF0738
:1006B000E5CF8091E1019091E20183309105D9F07D
:1006C00054F48130910571F0029781F01092E201AB
:1006D0001092E10108958430910579F00597B1F702
:1006E00080E001C089E20E94DF07F0CF80EE0E9427
:1006F000DF0785E0F8CF8FE2F6CF80E3F4CFCF932A
:10070000DF93EC018881843038F08CEA90E00E941D
:10071000D306CE010E94691FDF91CF910895FC019D
:100720008081813049F48185811111C082858823BF
:1007300071F082E090E00895823061F4818581114A
:100740000CC0828581110CC083E090E0089581E0A7
:1007500090E0089586E090E0089585E090E00895A7
:1007600084E090E008950E948F039093F1018093BC
:10077000F0018330910581F034F481309105C1F0AE
:10078000029739F008958430910551F0059751F0A2
:10079000089581EE0E94490781E30E944907089568
:1007A00080E0FBCF88E30E94490788E30E94DF07CF
:1007B00088E3F3CF0E948F039093EE018093ED01C5
:1007C0008330910591F034F48130910561F0029706
:1007D00039F008958430910561F0059779F0089516
:1007E00081EE0E9449078DE201C08EE20E94490716
:1007F000089581EE0E94490785E3F8CF8DE20E94BB
:1008000049078DE20E94DF07EECF0E948F0390938D
:10081000EB018093EA018330910569F034F4813073
:10082000910509F1029751F008958430910551F036
:10083000059769F0089581EE0E9449078FE20E94B2
:100840004907089581EE0E94490786E3F8CF81EEBB
:100850000E94490786E20E94490781EE0E944907EB
:1008600086E20E94DF0781EE0E94490786E2E7CF19
:100870000E948F039093E8018093E70183309105F4
:1008800069F034F48130910509F1029751F008952F
:100890008430910551F0059769F0089581EE0E942A
:1008A000490780E30E944907089581EE0E944907A5
:1008B00087E3F8CF81EE0E94490787E20E9449074B
:1008C00081EE0E94490787E20E94DF0781EE0E94C5
:1008D000490787E2E7CF0E948F039093E501809359
:1008E000E4018330910569F034F48130910561F0C1
:1008F000029779F008958430910541F0059769F0E9
:10090000089581EE0E94490784E304C081EE0E94AD
:10091000490785E30E944907089584E30E94490737
:1009200084E30E94DF07F0CF0E948F039093E201DF
:100930008093E10183309105B1F034F48130910569
:1009400049F0029759F0089584309105D1F0059748
:1009500031F1089589E20E944907089580EE0E94CE
:10096000490785E0F8CF80EE0E94490785E00E94A4
:10097000490780EE0E94DF0785E00E94DF078FE2D3
:10098000EACF80EE0E94490785E00E94490780EE89
:100990000E94DF0785E00E94DF0780E3DCCF80E074
:1009A000DACF9C013A9521153F4150F5FC01EE2725
:1009B000F170BC0166277270AC01442754709C0131
:1009C0002227387094FF0EC080E1EF2B09F480E0FD
:1009D000672B09F08062452B09F08064232B89F096
:1009E0008068089581E0EF2B09F480E0672B09F01F
:1009F0008260452B09F08460232B19F088600895EC
:100A000080E00895CF93DF93EB010E94D104FE01B3
:100A10000995DF91CF910895CF93DF93EC01805E2C
:100A20009109089720F06FEE7AE0209711F469E5BC
:100A300078E0CE010E9402058C2F0E944907DF91C9
:100A4000CF910895CF93DF93EC010E94DF07CE0191
:100A5000805E9109089720F066EF7AE0209711F404
:100A600060E678E0CE010E940205DF91CF91089503
:100A700081E0089581E008950E943A05089508955F
:100A80000E943F050895A5E0B0E0E9E4F5E00C948C
:100A9000362B49835A833091950289819A8131118D
:100AA00019C0662399F0222389F00E94E80C182FC0
:100AB000682F89819A810E94C40C69817A81812F73
:100AC0000E94F4132596E3E00C94522B0E94D60C5E
:100AD000182FF3CF0E94E80C69817A81F1CFFC01D5
:100AE000262F408151816281738184810E94430558
:100AF000089581E00895CF93DF93EC0160E00E94B8
:100B00006F05BE010E944005DF91CF9108950E94BC
:100B1000571508950E945B15089508950E94130BC0
:100B20000E948D052FEF84E39CE02150804090408F
:100B3000E1F700C0000008950E948E050E94222463
:100B400008950E948E050E94332408950F931F93E9
:100B5000CF93DF938C0161E00E946F05EC01B80137
:100B60000E94AC1FB801CE010E943C05811106C055
:100B700080E0DF91CF911F910F910895B801CE01D0
:100B80000E94F11F8823A1F3B801CE010E94CE1E5E
:100B9000882371F3B801CE010E94AB1B882341F377
:100BA000B801CE010E94401E882311F3F801828112
:100BB000882361F0CB35FDE5DF0701F158F4C1155D
:100BC000ECE5DE0791F0CF3DDC4591F0C8010E94D5
:100BD0003805CFCFCD358DE5D80769F090F0C83A0C
:100BE000DD45A1F70E94A105C3CF0E949C05C0CF9F
:100BF0000E943612F7CF0E947711E8CF0E94811130
:100C0000E5CF0E948511E2CF0E9438230E94EA06B8
:100C100008950E94EE060E943D230895B0E0A0E0F2
:100C2000E4E1F6E00C94322BE82FF0E0E659FD4FBA
:100C3000D490282F26952695269530E0F901E65F79
:100C4000FC4F0491877010E0082E02C0159507959F
:100C50000A94E2F701701127F901E650FD4FE49084
:100C6000F12C082E02C0F594E7940A94E2F791E083
:100C7000E922FF24F901E651FD4FC491D0E002C002
:100C8000D595C7958A95E2F7C170DD270115110545
:100C900019F081EE0E944907E114F10419F086EE83
:100CA0000E9449078D2D0E945008E114F10419F0AB
:100CB00086EE0E94DF070115110519F081EE0E94F2
:100CC000DF07CD2B19F08CE20E945008CDB7DEB7BC
:100CD000E7E00C944E2BEF92FF920F931F93CF936C
:100CE000DF938C01F62E8AE0E82EF80184918823A8
:100CF00009F454C0813009F04DC0E8012196FE018D
:100D00008491813091F42196FE0184910E945008D3
:100D10008E010F5F1F4F8F2D815038F3EFE9FFE0F9
:100D20003197F1F700C00000F7CF823039F4E801C5
:100D30002296FE0184910E944907EACF833039F45C
:100D4000E8012296FE0184910E94DF07E1CF843002
:100D5000F9F6E8012296FE01249190E080E0FE0180
:100D600031962053330B2A30310548F0019780F239
:100D7000EFE9FFE03197F1F700C00000F7CFE89E00
:100D8000A001E99E500D1124C901840F951F2491E3
:100D9000EF01E5CF0E940E06E801BACFCDB7DEB76E
:100DA000E6E00C944F2B60E00E946B0608950895D6
:100DB0000E94D706089581E008950E94DB060895F9
:100DC0000895CF93C82F0E94D8068C2F0E94DD066D
:100DD000CF91089580E00E94E10608950E945E226E
:100DE0000E94E10608950E945E2290919402981755
:100DF00021F0809394020E94E1060895ABE0B0E0F8
:100E0000E4E0F7E00C94372B4F83588769877A87A3
:100E10008B8761110E9496101E821D8285E0FE0163
:100E20003796DE01119601900D928A95E1F7809137
:100E30008A0382FF0CC00E945610882319F082E0BA
:100E40000E9446110E943D1081110E94C4108C81A5
:100E50009D81892B61F449815A816B817C818D81CF
:100E60009E810E94940F2B96E2E00C94532B898173
:100E70009A8189238F3F79F3CE0101960E947905EB
:100E80008111E9CFF0CFFC01808191810E94220D78
:100E90000895CF93C82F8823C9F08238C9F40E94DF
:100EA0005E2281FD13C089E30E9423100E94D210AC
:100EB0002FEF81EE94E0215080409040E1F700C098
:100EC000000089E30E942B100E94D210CF91089558
:100ED0008338A1F40E945E2280FDF8CF83E50E9452
:100EE00023100E94D2102FEF81EE94E02150804019
:100EF0009040E1F700C0000083E5E4CF8438A1F41E
:100F00000E945E2282FDE2CF87E40E9423100E94AD
:100F1000D2102FEF81EE94E0215080409040E1F715
:100F200000C0000087E4CECF8CEF8C0F813AB8F47C
:100F30008C2F0E94841D8111C9CF6C2F8091F201EA
:100F40009091F3010E94C922882329F08C2F0E94DE
:100F50002B100E94D2108C2F0E942310B5CF80E25C
:100F60008C0F883048F4C77081E001C0880FCA95A3
:100F7000EAF70E947610A8CFEBE5EC0FE33040F4DF
:100F8000F0E0E05BFD4F808190E00E948B229ECFDD
:100F9000E8E5EC0FE73150F4F0E0EE0FFF1FEE5DF7
:100FA000FD4F808191810E94A12290CFCD3E08F417
:100FB0008DCF8C2F0E9486190E94591A87CF8823C3
:100FC00009F455C0823879F40E945E2281FF4FC037
:100FD00089E30E9423100E94D21089E30E942B1003
:100FE0000E94D2100895833859F40E945E2280FF37
:100FF0003EC083E50E9423100E94D21083E5EECF0D
:10100000843859F40E945E2282FF31C087E40E9436
:1010100023100E94D21087E4E1CF9CEF980F913A01
:10102000E8F290E2980F983050F4877091E001C098
:10103000990F8A95EAF7892F0E947C10D1CF9BE502
:10104000980F933028F490E080E00E948B2208955E
:1010500098E5980F973128F490E080E00E94A12253
:1010600008958D3E20F00E94E0190E94591A0895BB
:101070001F93CF93DF93182FEB010E94490720970E
:1010800039F4812F0E94DF07DF91CF911F910895DE
:101090008FE99FE00197F1F700C000002197EFCFA3
:1010A00070E060E0893311F460E570E00E94380878
:1010B0000895882321F00E9476100E94D21008958E
:1010C000882321F00E947C100E94D2100895B0E085
:1010D000A0E0EDE6F8E00C94302B6C01D62FC72F82
:1010E000FC011281F580F2949FE0F9220E946C10BD
:1010F000E82E8823B9F0E12E1123A1F08C2F807FF8
:10110000803421F080E28D0F8830D0F080918A0306
:1011100082FF16C082E00E9446110E946C1091E08E
:10112000E82EE926BC2EB2948FE0B822FBE0FB1536
:1011300008F461C0EB2DF0E0E453F44D0C94212B46
:10114000E12CF0CF0C2F0F70C07F11F00295007FC3
:10115000112399F0002359F080E28D0F883010F0B0
:10116000D11107C0802F0E9476100E94D2108D2FBF
:101170003AC0802F0E948910F8CF8D2F0E94DF0780
:101180000023C9F180E28D0F883010F0D11104C026
:10119000802F0E947C1003C0802F0E948F100E941D
:1011A000D21029C00C2F0F70C07FC03211F00295F1
:1011B000007FDD2351F0D13009F47CC0112309F404
:1011C00085C0FF2009F455C0D2CF80918A0382FDEB
:1011D00033C0112359F0002329F0802F0E9476108C
:1011E0000E94D21080E00E94490705C080E00E9462
:1011F000DF070111CDCFEB2DE850FF0B349720F422
:101200000E945E220E94E106EE2089F00E945210A8
:1012100080FD0DC0F60112820E944C100E94CC0B82
:10122000C6010E94C50A0E944C100E94EE0BCDB769
:10123000DEB7E9E00C944C2B1123E9F0F11006C065
:101240000E949910802B0E945908D5CF21E0F212FC
:1012500006C00E949910802B0E94AD10CCCF32E0C6
:10126000F312EECF0E94C4100E943A10802B0E940D
:10127000A010802FE8CFF11003C00E94C41011C04D
:1012800081E0F81212C00E947310802309F4B3CFDA
:101290000E94C4100E943A10902F909589230E94BA
:1012A000A010802F0E946008A6CF92E0F91609F4E2
:1012B000A2CFE3CF112329F0E2E0EF1508F49BCF92
:1012C000D8CFF1E0FF1508F496CFEBCFFF2049F31C
:1012D000D93349F42FEF37EE83E02150304080407E
:1012E000E1F700C000008D2F0E94DF0784CF8C2F14
:1012F00086958695837069F0813009F07CCF8D2FBB
:101300009C2F9370111102C090E080E00E94A122F6
:1013100072CF8D2F9C2F9370111102C090E080E04E
:101320000E948B2268CF8D2F112329F00E948619ED
:101330000E94591A60CF0E94E019FACF8C2F837057
:1013400009F041C0111157CF4D2F42954695477076
:10135000440F440F0D2F0F7010E030E020E0042EFA
:1013600004C0000F111F221F331F0A94D2F760E040
:1013700070E0CB01D4FF0FC06FE070E080E090E040
:1013800004C0660F771F881F991F4A95D2F7609592
:10139000709580959095C695C695C370602B712BFE
:1013A000822B932BC23049F058F4C13019F00E94BF
:1013B000770B21CF0E94640B1ECF0E948A0B1BCF9C
:1013C0000E94610B18CF8695112311F08C2F81702C
:1013D000882309F410CF4D2F429546954770440F4E
:1013E000440F0D2F0F7010E030E020E0042E04C0F9
:1013F000000F111F221F331F0A94D2F760E070E024
:10140000CB01D4FF0FC06FE070E080E090E004C03B
:10141000660F771F881F991F4A95D2F760957095C0
:1014200080959095C695C695C370602B712B822BC5
:10143000932BC23049F058F4C13019F00E94470C88
:10144000DACE0E94340CD7CE0E945A0CD4CE0E9421
:10145000A30BD1CECF70112329F08C2F0E94CC0B7F
:101460008D2FF1CE8D2F0E9460088C2F0E94EE0BE5
:10147000C2CED23F51F160F4D03FB9F0D13F81F0FC
:10148000112309F45AC0F11072CE8C2F8F7121C034
:10149000D33F11F1D43FA1F780918A0382FD26C08A
:1014A0008C2F8F71112311F314C0112349F091E097
:1014B0009F1508F4A0CE8C2F8F710E94120C9BCE2A
:1014C000E2E0EF1508F497CEF6CF8C2F8F71111153
:1014D000CDCF0E94CC0B8FCE112329F08C2F8F7192
:1014E0000E94B60B88CE0E94B00B85CE1123C1F0AE
:1014F0000E945210843041F40E943C118C2F8F7155
:101500000E94EE0BE12C77CEF1E0FF15D8F3CF71FE
:101510008C2F0E94CC0B63E08C2F0E941E11F2CF07
:1015200021E02F1530F40E943C1164E08C2F8F7164
:10153000F4CF81E00E944611E5CFFF2059F0D93366
:1015400009F0D1CE3FEF87EE93E0315080409040DC
:10155000E1F7C7CE8C2F8F7189CF0F931F93CF9355
:10156000DF93EC01688179818A810E942D0D8C01C5
:101570000E946D0C0E94600BB801CE010E946708AA
:10158000DF91CF911F910F910895CF93DF93EC01DD
:101590008B819C81892B29F08881998189238F3FB8
:1015A00051F4DF91CF910895CE010E94AD0ACE0192
:1015B0000E947B05F6CFCE010E94A6058111F4CFD3
:1015C0000E946C10882369F38A81882351F38091EB
:1015D0008A0382FFE6CF82E00E944611E2CF882391
:1015E00021F00E9489100E94D2100895882321F0D2
:1015F0000E948F100E94D210089590E080E00E9417
:101600008B2290E080E00E94A1220E9496100E940E
:10161000D2100E94751A0E94591A08950E94331020
:101620000E94FD0A08950E9483100E940E0B0895E7
:1016300092959F70963091F058F4925F9F7092301F
:1016400058F4803F19F030F4883E30F481E008957A
:101650009A5FF4CF843FD1F380E00895883EB0F3E1
:10166000813FD1F7F3CFFC01808191810E94220D4F
:101670000E94180B0895A5E0B0E0E1E4FBE00C94B3
:10168000372B2596E2E00C94532BA6E0B0E0EBE478
:10169000FBE00C94372B2696E2E00C94532B089534
:1016A0000E944F0B08950E94500B6093C7027093E5
:1016B000C8028093C9029093CA020E94FD0A08954D
:1016C00008950E94530B08950F931F930091C70232
:1016D0001091C8022091C9023091CA02602B712B6F
:1016E000822B932B0E94530B1F910F9108950F9300
:1016F0001F930091C7021091C8022091C902309136
:10170000CA0260237123822393230E94530B1F91EB
:101710000F9108950F931F930091C7021091C80273
:101720002091C9023091CA0260277127822793272E
:101730000E94530B1F910F9108950E944F0B089523
:101740000E949D0B08950E94A00B6093C3027093AA
:10175000C4028093C5029093C6020E94FD0A0895B8
:1017600060E070E0CB010E94A30B08950F931F93DC
:1017700041E050E060E070E08A019B0104C0000F8E
:10178000111F221F331F8A95D2F7C901B8010E9489
:10179000A30B1F910F9108950F931F9341E050E009
:1017A00060E070E004C0440F551F661F771F8A95E4
:1017B000D2F78091C3029091C402A091C502B0916A
:1017C000C6028A019B01082B192B2A2B3B2BC9012E
:1017D000B8010E94A30B1F910F9108950F931F93BF
:1017E00041E050E060E070E004C0440F551F661F08
:1017F000771F8A95D2F7CB01BA01609570958095D5
:1018000090950091C3021091C4022091C5023091BD
:10181000C60260237123822393230E94A30B1F918E
:101820000F9108950F931F9341E050E060E070E046
:1018300004C0440F551F661F771F8A95D2F7809109
:10184000C3029091C402A091C502B091C6028A0160
:101850009B01082719272A273B27C901B8010E94A5
:10186000A30B1F910F9108950F931F930091C30233
:101870001091C4022091C5023091C602602B712BD9
:10188000822B932B0E94A30B1F910F9108950F930E
:101890001F930091C3021091C4022091C5023091A0
:1018A000C60260237123822393230E94A30B1F91FE
:1018B0000F9108950F931F930091C3021091C402DA
:1018C0002091C5023091C602602771278227932795
:1018D0000E94A30B1F910F9108950895262F277042
:1018E00091E001C0990F2A95EAF723E07695679574
:1018F0002A95E1F725E0269FF001279FF00D11249E
:10190000E40FF51F50E040E0682F70E08191DF01A7
:1019100011979B01042E02C0369527950A94E2F791
:10192000217021952827292328272C934F5F5F4F6B
:101930004530510559F70895A82FA77023E09695D3
:1019400087952A95E1F725E0289FF001299FF00D62
:101950001124E60FF71F50E040E080E0219130E0D5
:101960000A2E02C0369527950A94E2F72170332794
:10197000042E01C0220F0A94EAF7822B4F5F5F4FBB
:101980004530510559F70895262F9C3070F4863064
:1019900060F4682F70E086E0989F600D711D11243F
:1019A00046E952E0822F0E946E0C0895292F9C3048
:1019B00068F4863058F490E066E972E036E0239FE0
:1019C000800D911D11240E949C0C089580E00895C3
:1019D000B0E0A0E0EEEEFCE00C94302B8C01C09067
:1019E000C302D090C402E090C502F090C60280917C
:1019F000C7029091C802A091C902B091CA02C82A38
:101A0000D92AEA2AFB2ACFE1D0E0BC2ED701C601B1
:101A10000C2E04C0B695A795979587950A94D2F792
:101A200080FD09C0219788F7B12C8B2DCDB7DEB78B
:101A3000E9E00C944C2BB8018C2F0E940F140197F5
:101A400089F3F3CFCF93DF93EC010E94E80CBE0142
:101A50000E940F14DF91CF9108951F93CF93DF93CE
:101A6000EB0190919502992339F0CB010E94220D50
:101A7000DF91CF911F910895882369F0CB010E94D7
:101A8000E80C182F682FCE010E94C40CBE01812FD4
:101A90000E940F14EDCFCB010E94D60C182FF6CF69
:101AA0001F93CF93DF93C091CB0216E08091CC02BD
:101AB0008C1304C0DF91CF911F910895D0E01C9F3B
:101AC000F0011D9FF00D1124E353FD4F4081518122
:101AD00062817381848195810E94450B2196C77034
:101AE000E5CF4091FD025091FE026091FF0270919E
:101AF000000380910103909102030E94450B089519
:101B00002091CB029091CC0256E0291302C080E0D4
:101B1000089530E0529FF001539FF00D1124E353DC
:101B2000FD4F7181761306C07081781303C07281F6
:101B3000741304C02F5F3F4F2770E7CF81E00895F3
:101B40001F93CF93DF9380910203807F09F049C0F8
:101B50008091FF02882309F444C08091CB02C09198
:101B6000CC026091FD027091FE02A0910003B09141
:101B70000103D62FD72316E0C81799F190E01097EC
:101B800011F0DF3F19F401968770F6CF189F90018E
:101B9000199F300D1124F901E353FD4F4181471383
:101BA000F2CF40814613EFCF42814111ECCF438108
:101BB00054814A1B5B0B483C510528F78091020376
:101BC0008F70806180930203F901EE52FD4F808196
:101BD0008F70806180838DEF92E00E94C50A0E9421
:101BE000500DDF91CF911F910895A1E1B0E0EBEF8F
:101BF000FDE00C942D2B8C0185E0F801DE011D9693
:101C000001900D928A95E1F7D8011296EC90129707
:101C10008DEFA82E82E0B82E409100035091010371
:101C20004115510509F461C19091FD022091FE0218
:101C3000892F82238F3F09F458C1CC901196DC90F4
:101C4000119713968D909C901497F090FF02F401D9
:101C5000E41BF50BFF2009F4F6C080910203382F36
:101C6000307FE83CF10508F0B0C031117BC0FE2C9C
:101C7000D21217C09C1115C0E11013C08F70806183
:101C8000809302030E94710DC5010E94C50A8091D4
:101C90000203D80115968C938F2D6196ECE00C947D
:101CA000492B8114910429F08D2D8C218F3F09F04F
:101CB00038C180E080FF15C04E2D6D2D8C2D0E9407
:101CC000800D882371F08DEF92E00E94C50A86E0B6
:101CD000EDEFF2E0DF011D928A95E9F70E94710DA8
:101CE0003FC08114910429F08D2D8C218F3F09F084
:101CF00015C180E0B82FB170AB2E80FF29C04E2DEA
:101D00006D2D8C2D0E94800DB82E811121C0CD86A5
:101D1000DE868D859E850E94220D292F22952F70AB
:101D2000223050F0243078F49F7051F0F801958102
:101D3000907F31F4FB2CB0CF9F7011F08823D1F34A
:101D4000805E8830B8F3C8010E94C50ABA2CF2CF71
:101D5000EE2009F4A1CF80910203816080930203F9
:101D6000F12C9ACFD21205C09C1103C0EE2009F4C9
:101D700087C0C8010E94330B882319F1EE2009F1B6
:101D800080910203803270F02091FD023091FE02BA
:101D900038872F8319869B868A868C87CE01079683
:101DA0000E94C50A86E0F801ADEFB2E001900D9205
:101DB0008A95E1F70E94A00D0E94710DFF24F39413
:101DC0006BCFC8010E94C50AF9CF311112C0782D1E
:101DD000998A888AA6016E2D89890E943B0B8DEF16
:101DE00092E00E94C50A86E0F50111928A95E9F712
:101DF00075CFD2120FC09C110DC0E1100BC015960B
:101E00008C93C8010E94C50A86E0F50111928A955B
:101E1000E9F742CFC8010E94330B882391F2EE20EC
:101E200081F280910203803208F4BCCF2091FD0240
:101E30003091FE023A8329831B829D828C828E839D
:101E4000CE010196ADCFE83CF10508F040C0FE2C74
:101E5000EE2009F4B6CFD2122CC09C112AC080917A
:101E6000020380FD1DC0982F907FD1F015968C93B2
:101E70001597903F39F0982F907F905F8F70892B46
:101E800015968C93C8010E94C50A86E0F801ADEF53
:101E9000B2E001900D928A95E1F70E94710DFCCE9F
:101EA00086E0F801ADEFB2E001900D928A95E1F77E
:101EB000F3CEC8010E94330B811174CF80910203CD
:101EC000816080930203C8010E94C50AE5CE782D87
:101ED000998A888AA6016E2D89890E943B0B86E02B
:101EE000F50111928A95E9F7D8CFEE2009F469CF70
:101EF000C8010E94330BF82E882309F462CF86E0D4
:101F0000F801ADEFB2E001900D928A95E1F78DEF07
:101F100092E00E9443070E94A00DBFCF81E08E2572
:101F2000E9CE81E08E25C6CEACE0B0E0EAE9FFE084
:101F30000C94362B4F83588769877A878B879C87C9
:101F4000CE0107960E94F50D882369F08A859B854E
:101F5000892B39F04F815885842F85238F3F09F0D5
:101F60006BC016E05FC086E0FE013796DE01119679
:101F700001900D928A95E1F78A859B85892B89F3DB
:101F800088859F8189238F3F61F32091CC0230E0C7
:101F9000C9010196877099274091CB02481719060D
:101FA00071F40E94130B1092CC021092CB0286E0C7
:101FB000EDEFF2E0DF011D928A95E9F7D2CF96E0CE
:101FC000929FD001939FB00D1124A353BD4FFE01EA
:101FD000319601900D929A95E1F78093CC020E9480
:101FE000500DBFCF819FC001112483539D4F0E948C
:101FF000F50D8823E9F0E091CB021E9FF00111243A
:10200000E353FD4F408151816281738184819581C9
:102010000E94450B8091CB0290E001968770992732
:102020008093CB028091CB029091CC028913DACFBE
:102030002C96E3E00C94522B69857A858B859C85E0
:102040000E94450B8ECF682F8091F2019091F30191
:102050000E94FF220895682F8091F2019091F30170
:102060000E94022308958091F2019091F3010E9451
:10207000052308958091100308950E94BB232091A9
:102080000E0330910F03821B930B9C0181E02838D3
:10209000334108F480E0089580910D03859585957E
:1020A0008595089580910D03877008950E94BB2344
:1020B00020910B0330910C03821B930B88389341C2
:1020C00048F080910D0382FB882780F991E08927F1
:1020D0008170089580E0FCCF90910D03977081E0AE
:1020E00009F480E0089580911B03089590911B03EB
:1020F000892B80931B030895809590911B0398234F
:1021000090931B03089510921B03089580911A0366
:10211000089590911A03892B80931A03089580954E
:1021200090911A03982390931A03089510921A031A
:10213000089580911103089508950E949C100895B8
:1021400090911003981721F0809310030E949D1026
:10215000089508950E94A9100895CF93C82F8091E3
:102160008A0382FF0FC0809111038C1759F00E94DF
:10217000BB2390930F0380930E03C09311038C2F06
:102180000E94AA10CF91089580911103882349F0ED
:102190001092110310920F0310920E0380E00E9420
:1021A000AA100895CF93DF93E091F201F091F3012B
:1021B00080911B038083E091F201F091F301808113
:1021C00090911A03892B8083809111038823B9F0A1
:1021D0000E943D1081110E94C410E091F201F09123
:1021E000F301808190911103892B80838091F2010A
:1021F0009091F3010E94B72281110E94C410C091F6
:10220000F201D091F30148E050E063E073E0CE01C9
:102210000E94722B892B59F088E0FE01A3E0B3E005
:1022200001900D928A95E1F7CE010E947222DF9112
:10223000CF91089508950E941A11089590918A03EC
:1022400092FF17C098E0899F90011124622B609340
:102250000D030E94CC0B0E94BB2390930C03809330
:102260000B0380910D038595859585950E941B1123
:1022700008950E94CC0B089510920D0310920C0348
:1022800010920B0380E00E941B11089590910D03A2
:102290008095892380930D03282F277091F4282F90
:1022A000082E000C330B9217130659F090918A03F5
:1022B00092FF07C08595859585950E94EE0B0E943B
:1022C0003C11089590918A0392FB222720F9281748
:1022D00069F080FB92F990938A0380918903909131
:1022E0008A030E94AC1182E00E94461108958091F9
:1022F0008A0382FB882780F991E089270E94621176
:10230000089581E00E946211089580E00E946211A8
:10231000089590E080E00E94902B21E0883E9E4F3F
:1023200009F020E0822F089582E090E00E94882B3F
:10233000089583E090E00E94882B0895CF9384E075
:1023400090E00E94882BC82F82E290E00E94882BA8
:10235000982F8C2FCF910895CF93C92F682F84E0A9
:1023600090E00E94962B6C2F82E290E00E94962BC8
:10237000CF910895AB01BC018FE090E00E94A82BA3
:102380000895AB01BC0183E190E00E94A82B089561
:1023900060E070E0CB010E94C111089560E070E040
:1023A000CB010E94BA110E94C811089568EE7EEF19
:1023B00090E080E00E94B42B60E082E090E00E9418
:1023C000962B60E083E090E00E94962B1092C7026B
:1023D0001092C8021092C9021092CA0260E084E012
:1023E00090E00E94962B64E082E290E00E94962B9F
:1023F00060E085E090E00E94962B60E086E090E04F
:102400000E94962B6FEF87E090E00E94962B40E0B1
:1024100050E0BA0188E090E00E94A82B60E08DE0D7
:1024200090E00E94962B40E050E0BA0188E190E0F5
:102430000E94A82B60E087E190E00E94962B40E08C
:1024400050E0BA018CE190E00E94A82B70E060E0BF
:1024500080E290E00E94B42B40E050E0BA0188E1B5
:1024600090E00E94A82B0E94CE1108950E94D611E0
:102470000895682F8EE090E00E94962B08950E94A8
:10248000C72360932C0370932D0380932E039093A6
:102490002F03609328037093290380932A0390935A
:1024A0002B030895089508950E94531208950895E6
:1024B0000E94571208958EE295E10E9454220E94D4
:1024C00052120E94541208950E94FE160895089513
:1024D00008950E9467120E94681208950E943115A3
:1024E0000E94E00608950E94B2230E94EE140E940A
:1024F00019170E9462160E946E120E94931B0E947E
:1025000023170E9458120895AAE0B0E0EAE8F2E129
:102510000C942D2B0E948516982E81110E943F123B
:102520008CE1A82E83E0B82E10E000E0802E802FF2
:102530000E945E15E82EF501C1905F01C816B1F149
:102540008091300381FD0E946415D12CFF24F39407
:10255000CE248C2D8F2129F10E946412882399F0BA
:10256000DE828F82EF2081E009F480E088870E947C
:10257000BB238160782F9A8789874E815F81688528
:102580008A850E94FE06F801E45EFC4F8081F826F1
:10259000F08281E0911001C080E02A96ECE00C947A
:1025A000492BD394FF0CF6E0DF12D3CF0F5F1F4F00
:1025B0000C30110509F0BACF8FEF89838A831B8213
:1025C0000E94BB238160782F9D838C8349815A812F
:1025D0006B818D810E94FE06DCCF0E94FE16811168
:1025E0000E944A2008950E9484120E94ED120E94C7
:1025F000971A0E94F3060895CF93DF930E94141454
:10260000EC01811521E5920708F042C0811530E503
:10261000930708F09DC0883E910530F5803E9105F6
:1026200008F092C0883A910588F4853A910508F03F
:1026300084C08130910509F487C0009709F484C0F3
:10264000049708F081C0D0E0C0E07EC08F3B9105C8
:10265000D0F7C85AD0E0CC0FDD1FCD5ADD4F09901E
:10266000D881C02DD46470C08115904250F4C1153A
:1026700081E0D80708F068C0CD3ED10520F3D065D1
:1026800063C0C11590E4D907F0F2DF70D06A5CC076
:10269000811525E5920700F5811534E5930708F0CB
:1026A0008BC0811543E5940708F073C0C11582E51E
:1026B000D80708F469C0CE018370992721E030E083
:1026C00002C0220F331F8A95E2F7C695C69580E2B5
:1026D000C89FE001112454C0C11599E5D907A8F499
:1026E000C11528E5D20708F06CC0C11536E5D3073F
:1026F00008F0A9CF8C2F0E94AB14C82FD0E0DC2F9C
:10270000CC27CC27DF71D0621FC0C1154AE5D407A2
:1027100008F45CC0CE0190568115904208F093CF2A
:102720008D2F8F710E94AB1490E0982F88278827F7
:102730009F719C012C2BE901E6CFC55AD0E0CF5701
:10274000DD4FC881D0E0D064CE01DF91CF910895F4
:10275000E4E096958795EA95E1F783702C2F26950E
:102760002695237040E2249F90011124382B8C2F52
:102770008370C1E0D0E002C0CC0FDD1F8A95E2F784
:10278000C22BD32BDC68E0CFDC2FCC27C16FD06A03
:10279000DBCF8370992721E030E002C0220F331F86
:1027A0008A95E2F7C695C69590E2C99FE00111248B
:1027B000C22BD32BDA68C8CFD82FCC27C46FD06AEE
:1027C000C3CFDC2FCC27C06FD06ABECF8C2F8F70C9
:1027D0000E94AB1434E0D695C7953A95E1F7CF70D7
:1027E0009C2FEC01D069B0CF972F7C30A8F46630D5
:1027F00098F470E026E0929F600D711D1124FB019A
:1028000098E4899FE00DF11D1124EE0FFF1FE6549F
:10281000FF4F85919491089580E090E008950E9483
:10282000F4130E94FC12089582389105B1F1B0F4BE
:102830008133910509F475C048F48932910509F492
:1028400069C08A32910509F473C0089585339105F2
:1028500009F459C08933910501F10895833E91052A
:10286000A9F138F4803E9105F9F0823E910549F1D5
:102870000895863E9105A9F1873E9105C9F1843EF0
:10288000910519F520918A0321FF1FC080918903CA
:1028900084FD14C087EE90E0089520918903237091
:1028A000A1F080EE90E008952091890320FD47C0BB
:1028B00030918A0330FF09C024FF44C090E080E0DB
:1028C00004C02091890322FDF7CF08952091890348
:1028D00022FD3BC030918A0330FDE3CF24FFF5CFCA
:1028E000EDCF2091890323FFF0CF24FDE7CFD2CF96
:1028F0002091890323FD2CC030918A0331FFEECF54
:1029000084EE90E008952091890325FFDECF89E2CF
:1029100090E008952091890325FFD7CF85E390E0CB
:1029200008952091890326FFD0CF8AE290E0089590
:102930002091890326FFC9CF81E390E0089589E3C0
:1029400090E0089583EE90E0089582EE90E008957F
:1029500086EE90E008959091890392FF06C0282F9B
:1029600028712830F9F4877F846093FF06C0282FF0
:1029700028712831F1F4877E846120918A0320FF39
:1029800006C0382F38713830D9F4877F816021FF35
:1029900006C0282F28712831D1F4877E816194FDEB
:1029A000877E0895282F24712430F9F68B7F886064
:1029B000DCCF282F2471243101F78B7E8861DDCF95
:1029C000382F3171313019F78E7F8860E0CF282F92
:1029D0002171213121F78E7E8861E1CF109285032C
:1029E0001092860310928703109288030895CF9265
:1029F000DF92EF92FF926B017C010E94FE16811123
:102A00000EC00E94C723C61AD70AE80AF90AC09264
:102A10008503D0928603E0928703F0928803FF90AB
:102A2000EF90DF90CF9008950F931F930E94FE16B2
:102A3000882329F00E94C7231F910F9108950E94B7
:102A4000C72300918503109186032091870330915D
:102A50008803600F711F821F931FEECF80E00895DF
:102A600008950E948911811102C00E9436120E94AD
:102A70009411809330030E949E1190938A03809357
:102A800089030E9430150E949911682F70E090E030
:102A900080E00E94610B6091C3027091C40280913A
:102AA000C5029091C6020E94A00B089508950E944D
:102AB0005615089508950E945A150895E82FF0E0DC
:102AC000E856FC4F80810895089580EA8A95F1F7D1
:102AD000089500C008950E946515089508950E9404
:102AE0006E150895A6E0B0E0E8E7F5E10C94332B0D
:102AF0000E94FE16F82E6091A403882309F440C0BA
:102B000086E0E82E8E010F5F1F4FF8018E2D119287
:102B10008A95E9F7862F90E0B80188569C4F0E946D
:102B200031178823B9F080918B0390E046E050E0A4
:102B3000B80188569C4F0E94722B21E020933103EC
:102B4000892B91F4F12C0E948A058F2D2696E6E0C0
:102B50000C944F2B809131038823A1F3F80111923B
:102B6000EA94E9F710923103A0918B03B0E0A856E4
:102B7000BC4F86E0F80101900D928A95E1F7E3CF12
:102B800070E068567C4F80918B0390E088569C4F94
:102B90000E94B8170E946F15D8CFF894E82FE295DD
:102BA000EF70F0E031A1282F2F7081E090E001C09C
:102BB000880F2A95EAF7982F9095932391A392A1D5
:102BC000892B82A3789408950F931F93CF93DF935B
:102BD000CAE8D2E089918F3F11F00E94CD1582E0C2
:102BE000C039D807B9F7C4E8D2E00AE812E0899101
:102BF0008F3F11F00E94CD150C171D07C1F7DF9113
:102C0000CF911F910F910895B0E0A0E0EAE0F6E1C6
:102C10000C94312BEC01D62E062F10E0C8018657FC
:102C20009D4F7C01FC0180818F3F09F444C0F894E2
:102C3000E82FE295EF70F0E091A18F7021E030E095
:102C400001C0220F8A95EAF7892F822B81A382A1E6
:102C50002095282322A378940E946915E4E8F2E0E5
:102C600031E0C12C21912F3F59F1A22FA295AF70D5
:102C7000B0E090968C9190E02F7002C0959587956A
:102C80002A95E2F780FD1CC0832FC82A330F82E00B
:102C9000EA38F80739F7F70180818F3F11F00E9479
:102CA000CD1561E0C11001C060E08D2D0E946B1553
:102CB000C00FD11FC882CDB7DEB7E8E00C944D2B12
:102CC00080E0E3CF8091F4018091F40196E08111DE
:102CD00090E09093A40386E0891B80938B030E946D
:102CE000E4158CE0E8E9F3E0DF01982F1D929A9556
:102CF000E9F7ECE8F3E0DF011D928A95E9F786E059
:102D00000E94C8160E9487050895ACE0B0E0EBE889
:102D1000F6E10C94332B8E010F5F1F4F8CE0F8010E
:102D200011928A95E9F7F12C6F2DC8010E940416C3
:102D3000F394F6E0FF12F8CF4CE050E0B8018CE8D5
:102D400093E00E94722B7C0121E0892B09F420E0A2
:102D5000E114F10441F08CE0F801ACE8B3E001903B
:102D60000D928A95E1F76091A40370E068567C4F5C
:102D700046E08CE893E00E94C91681E090E0E114FF
:102D8000F10411F40E9472152C96E6E00C944F2B7E
:102D90000895FF920F931F93CF93DF93F82E092F7F
:102DA000162FD72FC42F222349F081E080933403BC
:102DB0000E94BB23909333038093320380913403AA
:102DC0008823A1F080913203909133030E94D32392
:102DD000029760F0EF2DF02FA12FBD2FCE0FDF2F28
:102DE000D11DEC17FD0739F410923403CDB7DEB7CF
:102DF000E5E00C94502B81918D93F3CF80913703B4
:102E0000811107C00E94002B882351F081E080933C
:102E1000370381E090913703913009F080E0089505
:102E200082E0809337030E94FB2AF3CF0E94FE16B4
:102E300008950E9416178093F4010E94FE168111D6
:102E40000E94671708950E94FE16811102C00E9419
:102E50006A17089581E0909138039A3008F080E075
:102E600008950F931F93CF93DF93EC018B01809113
:102E700038038A30B8F4B801CE010E94B517C82FC4
:102E8000811122C0809138038F3FB9F40E94BB2387
:102E900090933603809335038C2FDF91CF911F9150
:102EA0000F91089580913503909136030E94D323AA
:102EB000843F914000F7C0E0EFCF8F5F80933803ED
:102EC0008A3020F7C1E0E8CF10923803E5CF0E94A6
:102ED000F22008950E94F5200895B0E0A0E0E3E715
:102EE000F7E10C94322B7901C82F880FDD0B4115C7
:102EF0005105A9F0FE0193E0EE0FFF1F9A95E1F74F
:102F0000EB50FE4F81819281875C9C4F208130E0A5
:102F10004217530708F49A01A9010E947F2BCE01A2
:102F20000E94DE21D82E8823D1F001151105B9F0B9
:102F300083E0CC0FDD1F8A95E1F7FE01EB50FE4FD9
:102F4000438150E00417150708F4A801CB50DE4F69
:102F50006C817D81675C7C4FC7010E947F2B8D2D2A
:102F6000CDB7DEB7E7E00C944E2B0E94A71808956A
:102F70000E94BE180895A4E0B0E0E1ECF7E10C94E3
:102F8000352B6091520370915303809154039091BB
:102F900055030E94E22311E0643671058105910515
:102FA00018F10E9414156E5F7F4F8F4F9F4F6983FA
:102FB0007A838B839C8310E000E030E020E044E0E3
:102FC00050E0BE016F5F7F4F82E00E946D17182FA7
:102FD000882351F00E94C7236093520370935303D8
:102FE0008093540390935503812F2496E4E00C942E
:102FF000512BB0E0A0E0EFEFF7E10C942F2B7C0118
:103000005B016A010E942A1701E010E0882311F099
:103010000AE010E0C1E0D0E0B501C701F601099572
:10302000811104C021960C171D072CF4CDB7DEB713
:10303000EAE00C944B2BCC9F9001CD9F300D300DCE
:10304000112490E080E045E34A95F1F700000196F5
:1030500082179307C1F7E0CFA7E0B0E0E2E3F8E121
:103060000C942F2B7B01C0909002D090910201E034
:1030700010E09E01295F3F4F50E040E070E060E0CB
:1030800080E00E946D17182F882309F448C056016C
:103090008FEFA81AB80A60914E0370914F03809188
:1030A0005003909151030E94E2236436710581051B
:1030B000910568F106E010E09E012F5F3F4F50E060
:1030C00040E070E060E081E00E946D17D82E66E07D
:1030D00070E0C5010E94941B11E09F81981310E0DD
:1030E0001D2141F10E94C72360934E0370934F034B
:1030F000809350039093510386E0FE013196A8E43B
:10310000B3E001900D928A95E1F711E013C066E0FB
:1031100070E0C5010E94941B9F818913CBCF86E08C
:10312000F6013196DE01119601900D928A95E1F734
:103130001111E2CF86E0E8E4F3E0D70101900D92AF
:103140008A95E1F7812F2796EAE00C944B2B0F9399
:103150001F93CF93DF93EC018B014CE258E10E9467
:10316000F917882331F04BEB57E1B801CE010E94EB
:10317000F917DF91CF911F910F9108950F931F932E
:10318000CF93DF93C0919002D0919102CE0101962E
:1031900026E0FB01DC0101900D922A95E1F766E043
:1031A00070E00E94941B88836F81788589859A8559
:1031B0000091440310914503209146033091470349
:1031C000601771078207930751F06093440370936F
:1031D000450380934603909347030E94F714DF91C1
:1031E000CF911F910F9108950E94D6250E947312CE
:1031F0000E94E32508950E94E8250E94F3120E9490
:10320000022608950E9454230E94BC250E945B124E
:103210000E94F4180E94FB180E946912FBCF809153
:103220005E0380FF0DC06091110270E0660F771F92
:103230006038710570F56115710569F1862F089583
:1032400081FF07C06091110284E0689FB0011124E2
:10325000EFCF6091110282FD0AC080915D03882347
:10326000A9F02091100260911102821710F088E0FD
:10327000ECCF869FC001112433E0880F991F3A9547
:10328000E1F7622F70E00E940D2BD2CF68E070E072
:10329000D5CF8FE7089581E0089580915E0380FF88
:1032A0000CC060910E0270E07595679575956795F5
:1032B0006115710549F1862F089581FF06C060915F
:1032C0000E0270E075956795F3CF60910E0282FD56
:1032D0000BC090915C039923A1F060910D02809145
:1032E0000E02961738F0682F70E06038710500F311
:1032F0008FE70895899FC001112470E00E940D2B73
:10330000F4CF61E070E0D7CF81E008958D3E31F4D5
:103310000E940F1981958093620308958E3E19F4DF
:103320000E940F19F8CF8F3E31F40E940F1981953A
:10333000809361030895803F19F40E940F19F8CF1C
:10334000893F29F40E944D198093630308958A3FB1
:1033500021F40E944D198195F7CF8B3F31F40E94E3
:103360004D1981958093640308958C3F19F40E9450
:103370004D19F8CF9FE0980F983070F4815F990B4A
:1033800021E030E001C0220F8A95EAF780916003C6
:10339000822B8093600308958D3F31F480915E030A
:1033A000816080935E0308958E3F21F480915E03D7
:1033B0008260F7CF8F3FB9F780915E038460F1CFD1
:1033C000409161038D3E59F48091620387FF0DC0E7
:1033D0001092620341110BC010925D0308C08E3E33
:1033E00081F48091620318169CF3442381F080914C
:1033F000630390916403892B09F05AC010925C0317
:1034000008958F3E49F447FFF0CF109261038091F9
:1034100062038111ECCFE0CF803F19F41416ACF3B6
:10342000E4CF90916303893F29F41916F4F61092C2
:103430006303DBCF8A3F19F497FFD7CFF8CF909182
:1034400064038B3F29F497FFD0CF10926403CDCF54
:103450008C3F19F41916CCF3C8CF9FE0980F983021
:1034600090F4815F990B21E030E0B90102C0660F52
:10347000771F8A95E2F7CB018095909160038923AD
:1034800080936003B2CF8D3F31F480915E038E7FD5
:1034900080935E03AACF8E3F21F480915E038D7FDF
:1034A000F7CF8F3F09F0A1CF80915E038B7FF0CFE4
:1034B00008950E94BB239C01909161038091620357
:1034C000982B21F030935B0320935A039091630370
:1034D00080916403982B21F0309359032093580373
:1034E0008FE593E00E947D22089586E0EFE5F3E00A
:1034F000DF011D928A95E9F710925D0310925C033B
:1035000010925E030895FC01828181110EC08381B7
:1035100081110BC08481811108C091E085818111E6
:1035200001C090E0892F8170089581E0FCCFA6E072
:10353000B0E0EDE9FAE10C94362B86E0EFE5F3E03C
:10354000DE01119601900D928A95E1F710926103C8
:103550001092620310926303109264038B819C812A
:10356000892B89F080915A0390915B030E94D323A9
:10357000AC0190915D039923C9F1809112028417E7
:10358000150608F440C08D819E81892B91F08091B1
:103590005803909159030E94D323AC0190915C038E
:1035A000992309F471C080910F028417150608F45D
:1035B00079C0BE016F5F7F4F8FE593E00E940C23BF
:1035C000811105C08FE593E00E94831A81110E944A
:1035D000591A86E0FE013196AFE5B3E001900D92F5
:1035E0008A95E1F72696E3E00C94522B209157033D
:1035F0008AE0289F900111242417350720F69F5F49
:1036000090935D0302C09F3FD1F71B81112359F0B6
:103610000E940F199FEF11160CF491E0899F802DE5
:103620001124809361031C81112359F00E940F190A
:103630009FEF11160CF491E0899F802D1124809347
:10364000620330916103332309F49DCF209162031B
:10365000222309F498CF45EB3403C00111249923A8
:1036600059F09093610345EB240390011124332317
:1036700039F03093620387CF81E080936103F3CF09
:1036800081E0809362037FCF209156038AE0289FD8
:10369000900111242417350708F08BCF9F5F90937A
:1036A0005C0302C09F3FD1F71D81112359F00E9496
:1036B0004D199FEF11160CF491E0899F802D112474
:1036C000809363031E81112359F00E944D199FEFCF
:1036D00011160CF491E0899F802D112480936403CE
:1036E00030916303332309F464CF209164032223D0
:1036F00009F45FCF45EB3403C0011124992359F03D
:103700009093630345EB240390011124332339F094
:10371000309364034ECF81E080936303F3CF81E065
:103720008093640346CF0895FC01680F791F8FEFE3
:1037300091E3E617F70709F408952191822728E01D
:1037400030E087FF06C0880F892721503109C9F76B
:10375000F0CF880FFACFCF93DF93EC01FB0182818A
:10376000882309F433C1C430FDE5DF07C0F5CB3F42
:103770009CE5D90730F49E0122503C4524313105A7
:10378000B0F50E949E1190938A0380938903C13102
:103790008CE5D80709F4EEC008F069C0C930ECE543
:1037A000DE0709F4D5C0C8F5C5308CE5D80709F4A3
:1037B000C7C000F5C330ECE5DE0709F4B9C008F076
:1037C000BBC0C230DC4509F4ADC080918903909143
:1037D0008A030E94AC110E94130B80E008C0C2361D
:1037E000EDE5DE0771F2C63AFDE5DF0751F2DF9144
:1037F000CF910895809189038062C7309CE5D907F5
:1038000009F493C0809189038061C830DC4508F4D5
:103810008CC080918903806488C0809189038B7FEC
:10382000CD30FCE5DF0709F480C098F4809189036E
:103830008E7FCB309CE5D90709F477C0809189034E
:103840008C60CC30DC4508F470C0809189038D7F9A
:103850006CC0809189038F7ECF30FCE5DF0709F4CF
:1038600064C008F47BC0809189038F7D5EC0CE3F29
:103870009CE5D90709F47AC050F5C531FCE5DF07AE
:1038800009F486C098F480918903837FC3319CE555
:10389000D90709F44AC008F471C00E94130B909133
:1038A0008903892F97FB87F980583FC0CC3FFCE5FF
:1038B000DF0709F449C008F055C080918A03816090
:1038C000CB3FDC4509F081CF80938A037ECFC230A5
:1038D000EDE5DE0709F468C0A8F4C1158DE5D80749
:1038E00009F452C080918A038360C130DD4560F3E2
:1038F00080918A03982F909591708E7F892B90FBF1
:1039000081F9E2CFC236EDE5DE0709F451C0C63ACF
:10391000FDE5DF0709F453C0C330DD4509F055CF9D
:1039200080E043C0809189038160809389034DCFFB
:10393000809189038260F9CF809189038460F5CFFB
:10394000809189038860F1CF80918A038260BCCF27
:103950000E94130B809189038068E7CF80918903CF
:10396000877FE3CF80918A038E7FAECF80918A03D9
:103970008D7FAACF809189038F7BD7CF0E94130BB5
:10398000809189038F77D1CF80918A038C7F9CCFE0
:103990008091890382FB992790F921E0922790FB7F
:1039A00082F990FB83F9C1CF81E00E9439120DCFDB
:1039B00090918903892F8F7E94FF8061B6CF90917B
:1039C0008903892F8E7F90FF8160AFCF81E00FCF79
:1039D0000F931F9341E050E060E070E08A019B018B
:1039E00004C0000F111F221F331F8A95D2F7C9018F
:1039F000B8010E94610B0E94130B1F910F91089553
:103A00008B3109F461C040F58B3071F078F4863069
:103A100009F443C020F4853059F180E008958730DF
:103A200009F444C08830C9F781E00895803109F471
:103A300059C068F48E3089F790913003892F8B7FBD
:103A400092FF84608093300382FD48C0EDCF8631C1
:103A500059F3893149F3E1CF8A32E1F060F48732DA
:103A6000A9F020F48E31C8F28D5111C08932A9F627
:103A70000E949C05D9CF833438F48A33F0F585331E
:103A800029F0883389F2C9CF833439F680E00E9467
:103A9000E81CCACF0E943612C7CF80913003807FC6
:103AA0008093300381E08093680308959091300300
:103AB000892F8E7F90FF81608093300380FDB4CF8B
:103AC000817F80933003B0CF90913003892F8D7F19
:103AD00091FF82608093300381FFA6CF80913003F5
:103AE0008160EFCF90913003892F877F93FF8860AB
:103AF0008093300383FDF2CF97CF8953C8CF80E006
:103B000008950E947F1D0895CF93C82F8091680368
:103B10008130B9F0882331F08230A1F1109268032E
:103B200080E00DC00E9473108232D1F78C2F0E946A
:103B30007F1D81111BC08C2F0E94001D8170CF91B1
:103B400008950E947310823289F38C2F0E94811D88
:103B500081110AC0C43199F060F4CB3029F0C03132
:103B600069F782E08093680381E0E8CF81E090E02C
:103B7000E5CFC93221F0C833B9F380E0DFCF10922E
:103B80006803FBCFC93209F43FC0E8F4C431E1F166
:103B900028F4C73009F45BC081E0D1CF82EE8C0FEE
:103BA0008A30D0F7CD51C0936703C33009F446C0C3
:103BB000B0F5C13009F43FC082E192E0C230B1F10A
:103BC00010926703E9CFC03509F452C0B8F48AE017
:103BD000CF3411F7E0916503F09166033097E1F27D
:103BE0002081082E000C990B820F911D8F3F9105AB
:103BF00009F00CF441C08FEF8083CECFC135D1F1F5
:103C000081E0C23539F39BCF80916703882321F28D
:103C1000109267031092660310926503BDCFC53002
:103C200099F078F08DE092E0C63051F690936603FB
:103C300080936503B1CF87E593E0F8CF81E192E00F
:103C4000F5CF80E192E0F2CF8EE092E0EFCF1092DC
:103C5000570384E180931202C09311028CE3809396
:103C6000100288E080930E0288E280930D0294CFC8
:103C700086EFB0CF8FEFAECF97FFBECF10828CCF45
:103C8000CF93DF93EB0186319C4511F50E947310B1
:103C90009A81992399F08A7A91E009F490E09093BF
:103CA0006903811109C089E20E9423100E94D21089
:103CB00080E0DF91CF91089585E3F6CF809169038D
:103CC000811104C089E20E942B10F0CF85E3FBCF65
:103CD00081E0EFCF0F931F93CF93DF93C42FD22FA9
:103CE000FC0182818823C9F040936C030E94BB23AE
:103CF00090936B0380936A0380E28C0F883040F4CA
:103D0000C77081E001C0880FCA95EAF70E94590880
:103D1000DF91CF911F910F91089510916C031413AF
:103D200032C080916A0390916B030E94D323883C38
:103D3000910548F5C0E2CD0F1D17B9F080E2810F63
:103D4000883040F4177081E001C0880F1A95EAF7B7
:103D50000E946008C83048F481E09D2F977001C030
:103D6000880F9A95EAF70E945908802F0E94500800
:103D7000C83070F6D77081E001C0880FDA95EAF795
:103D80000E946008C5CF80E28C0F883008F6C770AB
:103D900081E001C0880FCA95EAF7F2CF0F939C012A
:103DA000CB01243F4CE5340759F1A8F4293DFCE54B
:103DB0003F0701F12A3D4CE53407D1F1283D3C4550
:103DC00091F406E221EE41EE68ED7CE50E946A1E68
:103DD00080E00F910895263FFCE53F07E9F0B0F041
:103DE000273F3C45F9F0FC018281882339F110928C
:103DF0006C03EFCF07E225EE45EE69ED7CE5E6CFFB
:103E000006E221EE40EE64EF7CE5E0CF07E225EE2E
:103E100044EE65EF7CE5DACF06E221EE42EE66EF96
:103E20007CE5D4CF07E225EE46EE67EF7CE5CECF0A
:103E300008E221E045EE6AED7CE5C8CF81E0C9CF1C
:103E4000CF93DF93EC0181E0898B8F810E94761004
:103E500088850E9489100E94D210EA81FB813097E8
:103E600029F06C897D89CE0106960995DF91CF9165
:103E70000895CF93DF93EC018881823039F4FB0100
:103E8000828193810E940C0581E08B87DF91CF9125
:103E90000895FC018081813031F4FB0180819181A2
:103EA0000E940C0508958230E9F7FB01828193811D
:103EB000F7CFFC018081813031F4FB018081918159
:103EC0000E94220508958230E9F7FB0182819381E7
:103ED000F7CFEF92FF920F931F93CF93DF93EC01F5
:103EE0008A85811134C0EB80FC8087E5F81A26E1D1
:103EF0002E9DC0012F9D900D1124DC01A050BF4FBD
:103F00001496ED91FC911597309731F054966D9180
:103F10007C918A5F9E4F099586E18E9D80018F9DE1
:103F2000100D112400501F4FF80187810E947C1052
:103F3000F80180850E948F100E94D2101882198685
:103F40001B861E821D8210926E0310926D03CDB7E8
:103F5000DEB7E6E00C944F2BB0E0A0E0E2EBFFE12F
:103F60000C94322B7C01FB018281882399F0809193
:103F7000130290911402019669F0C0E0D1E010E0C4
:103F800000E0DD24D39480911302909114028017F5
:103F900091072CF4CDB7DEB7E7E00C944E2B8E8161
:103FA0008823D9F089859A858E159F0539F48091EB
:103FB0006D0390916E038E159F0579F0DF86FC8668
:103FC000EB868989811103C0CE010E94201FCE019A
:103FD00006960E94691F0E9496100F5F1F4F6696FB
:103FE000D2CFEF92FF920F931F93CF93DF937C0179
:103FF00097558F3F910509F0E0F52091130230911C
:1040000014022817390724F49093140280931302A2
:10401000FB01228136E1389F8001399F100D112468
:10402000E801C050DF4F288B92818E81992339F1AE
:10403000FA86E9868F5F8E830E94BB239E878D87D9
:104040000E9499108F830E94731088870E948610A7
:104050009885892B8887E881F981309731F06C89C0
:104060007D89C8018A5F9E4F0995F0926E03E092A8
:104070006D0381E0CDB7DEB7E6E00C944F2B8823CB
:10408000C1F389898823A9F3C8018A5F9E4F0E94E2
:10409000691FEFCFEF92FF920F931F93CF93DF93A0
:1040A0008091130290911402019609F040C0CDB79F
:1040B000DEB7E6E00C944F2B089FF001099FF00D4E
:1040C0001124E050FF4FE288F388E114F10419F461
:1040D00028ECE22EF12C089FE001099FD00D11245D
:1040E000C050DF4F8E818823B9F08D859E850E9458
:1040F000D323E816F90680F4109F700111248989F2
:10410000811105C0C70180509F4F0E94201FC70129
:104110008A5F9E4F0E94691F1F5F812F90E0209150
:104120001302309114022817390734F6C0CF10E07B
:1041300006E1F3CF8EE1489B02C08150E1F7489B36
:10414000FECF0895589880E28A95F1F7589A08951D
:10415000FC013BE03A95F1F798E020E080E031E0A7
:1041600040E14A95F1F7880F489B02C08160232700
:1041700042E04A95F1F7000040E14A95F1F791508D
:1041800079F790E19A95F1F799B132E03A95F1F724
:10419000000040E14A95F1F7917092272081920F3B
:1041A00090830895A1E0B0E0E8EDF0E20C94332BA9
:1041B00019828C017C01E60EF11C0E151F0541F4DD
:1041C00081E09981911180E02196E6E00C944F2BDB
:1041D0000E949A20CE0101960E94A820F8018193A6
:1041E0008F01EBCF509A589A08955098589AE89AB0
:1041F000E9E6F0E080818C7F808308956150770B41
:1042000091E001C0990F6A95EAF720E031E0911141
:1042100008C0222391F0589A80E28A95F1F75898C5
:104220000895492F482339F0589A232740E24A95A8
:10423000F1F79695ECCF5898F9CF5898EDCFFF92BB
:104240000F931F93CF93DF93EC018C01060F111D89
:10425000C017D10729F4CDB7DEB7E5E00C94502B99
:10426000F9900E94A22068E08F2D0E94FE20F0CFDE
:104270001F920F920FB60F9211240F931F932F933B
:104280003F934F935F936F937F938F939F93AF93DE
:10429000BF93EF93FF93CF93DF930F92CDB7DEB72A
:1042A00019820E949A20CE0101960E94A820082F10
:1042B000069506950695282F22952570902F9570C6
:1042C000290F922F937026952695920F9827977015
:1042D0008981982B09F05CC0043008F059C080E156
:1042E0008A95F1F7589A509A82E08A95F1F700C0C2
:1042F000589888E0089F80011124D801AB50BE4F28
:104300001696ED91FC9117973097A9F06091900265
:104310007091910214962D913C911597260F371F9D
:1043200011968D919C911297680F791F13964C915D
:1043300013978C910995F801EB50FE4F638166232A
:1043400051F0209190023091910284819581820FE9
:10435000931F0E941F210E94A22080E18A95F1F7FD
:1043600058985098589A80E18A95F1F7F801EB50E7
:10437000FE4F6081662351F02091900230919102AE
:1043800081819281820F931F0E94D2200E949A20E5
:104390000F90DF91CF91FF91EF91BF91AF919F91DE
:1043A0008F917F916F915F914F913F912F911F91CD
:1043B0000F910F900FBE0F901F9018950F931F93A2
:1043C000CF93DF93EC0104970CF04CC0F894509A13
:1043D000589885E08A95F1F700009C2F9695957086
:1043E0008C2F8570980F892F83709695969523E072
:1043F000CC0FDD1F2A95E1F7980F8E01092B0E9443
:10440000A22000C068E0802F0E94FE2080E18A95F3
:10441000F1F75098589A489B1EC087E090E0489961
:104420001CC0FE01EB50FE4F63816623F9F0209122
:1044300090023091910284819581820F931F0E9496
:10444000D220811113C0509A589A7894DF91CF915D
:104450001F910F91089500C0DECF019729F4509A63
:10446000589A789480E0F2CF00C0D9CF0E949A2069
:1044700080E28A95F1F75898509A80E18A95F1F791
:10448000CB50DE4F6881662351F02091900230912D
:10449000910289819A81820F931F0E941F210E949D
:1044A000A220789481E0D2CF9093930280939202DD
:1044B0000895909375038093740308950E94FE16E7
:1044C000811103C080916F030895E0917403F0910E
:1044D0007503309729F00190F081E02D099508953A
:1044E00080E00895E0917403F0917503309721F016
:1044F0000280F381E02D09950895E0917403F09115
:104500007503309739F022E0DC012C930480F581AB
:10451000E02D0995089520917203309173032817B7
:10452000390771F09093730380937203E0917403E1
:10453000F0917503309721F00680F781E02D099501
:10454000089520917003309171032817390771F095
:104550009093710380937003E0917403F09175035D
:10456000309721F00084F185E02D099508959C0194
:104570002E5F3F4FAC01485F5F4F80E02417350747
:1045800009F40895F90191919F019923B9F38F5F7F
:10459000F5CF662349F0FC01329608962191261743
:1045A00029F0E817F907D1F780E0089581E0089530
:1045B0009C01FC0132969FEF80E04191461751F03B
:1045C0009F3F19F4411101C0982F8F5F8630A9F7E2
:1045D0009F3F09F40895290F311D97FD3A95F90180
:1045E00062830895FC01329608962191261303C038
:1045F000DF0111971C92E817F907B9F708950E9497
:10460000D82208950E94F2220895029626E0FC0125
:1046100011922A95E9F7089546E050E00E94722B26
:1046200021E0892B09F420E0822F089508950E944B
:1046300016230895811106C081E0809376030E94BD
:104640001723089582E0F9CF83E0809376030E94D8
:10465000172308950E941A23089581E0809376031A
:104660000E94172308950E942D2308950895089508
:104670000E9437230895089508950E9436230895CF
:10468000CF930E943B230E9485160E943C23C0E0EA
:104690008C2F0E945E15811105C0CF5FCC30C1F711
:1046A000CF91089581E0FCCF85B7806885BF85B73D
:1046B000806885BF08951F921FB61F9211248F93A3
:1046C0009F93AF93BF9380917703811113C0809123
:1046D000A5039091A603A091A703B091A8034196CA
:1046E000A11DB11D8093A5039093A603A093A703DA
:1046F000B093A803BF91AF919F918F911F901FBE60
:104700001F9018958091AD03843031F10E9404060A
:104710001092770388E190E020E40FB6F894A89512
:10472000809360000FBE2093600083B7817F846018
:1047300083BF83B7816083BF7894889583B78E7F6A
:1047400083BF0FB6F894A89580916000886180932C
:104750006000109260000FBE08950E94130B0E942B
:104760000906089582E084BD93E095BD9AEF97BD58
:1047700080936E0008952FB7F8948091A5039091CF
:10478000A603A091A703B091A8032FBF08952FB748
:10479000F8946091A5037091A6038091A70390916E
:1047A000A8032FBF08959C014FB7F8948091A503EB
:1047B0009091A603A091A703B091A8034FBF821BBD
:1047C000930B0895CF92DF92EF92FF922FB7F89458
:1047D000C090A503D090A603E090A703F090A80393
:1047E0002FBFA7019601261B370B480B590BCA0197
:1047F000B901FF90EF90DF90CF90089578941F92C9
:104800001FB61F9211248F939F93AF93BF938091F4
:10481000A5039091A603A091A703B091A8030196C8
:10482000A11DB11D8093A5039093A603A093A70398
:10483000B093A803BF91AF919F918F911F901FBE1E
:104840001F90189587E797E79093010880930008D9
:1048500088E19AE00FB6F894A895809360000FBEA7
:1048600090936000FFCF88E19AE00FB6F894A89586
:10487000809360000FBE90936000FFCF8091830310
:10488000089508959C0182E08093E9009FEF809154
:10489000E800915085FD06C085ED8A95F1F700008E
:1048A0009111F5CF8091E80085FF0CC050E040E009
:1048B00066E070E0C9010E9474268091E8008E775E
:1048C0008093E8000895CF93DF93EC0181E080931B
:1048D000E9008FEF9091E800815095FD06C095EDBD
:1048E0009A95F1F700008111F5CF8091E80085FFDE
:1048F00014C050E040E068E070E0CE010E947426F1
:104900008091E8008E778093E80088E0FE01ABE7B5
:10491000B3E001900D928A95E1F7DF91CF91089570
:104920008093780370937A03609379038091AD0349
:10493000843001F582E08093E9008FEF9091E800E8
:10494000815095FD06C095ED9A95F1F70000811113
:10495000F5CF8091E80085FF0DC050E040E063E0B6
:1049600070E088E793E00E9474268091E8008E77DB
:104970008093E8000895BC0184E00E94902408958B
:10498000BC0183E00E94902408958091AC038111C2
:1049900009C00E9404280E9461288091E20084607E
:1049A0008093E20008951092AC0308950E942D2395
:1049B00008956091A90381E0611101C080E00E9427
:1049C000242308959091AD0381E0943009F080E0B4
:1049D0006091A9030E942A23089542E061EC81E0DE
:1049E0000E94802742E261EC82E00E948027909141
:1049F000AD0381E0943009F080E06091A9030E944A
:104A00001A2308958091AF03833009F461C030F414
:104A10008130D1F1823009F49EC008958A3009F4C2
:104A20008AC08B3009F46FC0893009F050C0809182
:104A3000AE03813209F04BC08091B2039091B30371
:104A4000029708F044C08091E800877F8093E800D7
:104A50008091E80082FF37C09091F3008091F200CE
:104A6000029731F48091F100813011F0863021F409
:104A70008091F100809383038091E8008B7780938D
:104A8000E8000E94B42723C08091AE03813AF9F474
:104A90008091E800877F8093E8008091B203909135
:104AA000B303892B61F468E08BE793E070E00E9428
:104AB000C3268091E8008B778093E800089560E03A
:104AC00090E080E0F3CF8091AD038111C1CF0895D4
:104AD0008091AE03813AD9F78091B2039091B303EC
:104AE000892BA9F78091E800877F8093E800809167
:104AF000E80080FFFCCF809121028093F10080913B
:104B0000E8008E77BCCF8091AE03813201F78091AF
:104B1000B2039091B303892BD1F68091E800877F8F
:104B20008093E8000E94B4278091B0038093210213
:104B30000E94130B08958091AE03813241F680915B
:104B4000E800877F8093E8000E94B4278091B1033A
:104B50008093840308958091AE03813A09F0B7CF22
:104B60008091E800877F8093E8008091E80080FFD3
:104B7000FCCF80918403C1CF84B7877F84BF0FB6F9
:104B8000F894A895809160008861809360001092ED
:104B900060000FBE80E890E00FB6F894809361004B
:104BA000909361000FBE0E94332308950E94042851
:104BB0000E946128E2EEF0E0808184608083789436
:104BC0000E94E02A089585E192E00E94592208950A
:104BD0008091AD03853031F48091AD03853019F0BB
:104BE0000E94AD2308950E9482238091AB03882305
:104BF00099F30E944023882379F30E945E260E9445
:104C0000130BEACF08950E9406260895292F332713
:104C10002330310519F168F42130310509F444C01D
:104C20002230310509F445C090E080E030E020E01A
:104C300025C02132310549F122323105A9F780E43E
:104C400090E024E234E061157105C1F08BE790E05B
:104C500029EA33E06130710589F0E6CF9927813088
:104C6000910581F0009729F00297F1F6EAE1F3E06F
:104C700002C0E8E5F3E0849190E09F01FA013183FE
:104C800020830895E8E4F3E0F6CF89E090E02EE693
:104C900033E06115710591F389E090E027E833E096
:104CA0006130710559F3C0CF82E190E027E933E02C
:104CB000E5CF8BE390E02CE533E0E0CF80E189BDE8
:104CC00082E189BD09B400FEFDCF8091D8008F7DBF
:104CD0008093D8008091E00082608093E000809112
:104CE000E00081FDFCCF0895AF92BF92CF92DF929A
:104CF000FF920F931F93CF93DF936C01EB018A0117
:104D00000E94D327F82E811123C00115110539F017
:104D1000F80180819181C81BD90BC80ED91EB12C16
:104D2000A12C2097A9F08091E80085FD22C08091F8
:104D3000E8008E778093E80001151105A1F0F801D5
:104D400080819181A80EB91EB182A08285E0F82EE3
:104D50008F2DDF91CF911F910F91FF90DF90CF901A
:104D6000BF90AF9008950E94D3278823D1F2F82EE8
:104D7000EFCFF60181916F018093F1002197FFEF52
:104D8000AF1ABF0ACECFFC018091B4039091B50356
:104D900086179707A0F06115710529F49091E80036
:104DA0009E779093E80090E06115710551F49111A0
:104DB00008C08091E80082FF34C080E00895BC0103
:104DC000F2CF8091AD038823C1F18530C1F180918C
:104DD000E80083FD30C08091E80082FDEACF809139
:104DE000E80080FFE1CF8091F3002091F200382F9E
:104DF0006115710519F02830310558F091E028301F
:104E0000310509F090E02091E8002E772093E8002A
:104E1000CBCF81918093F100615071092F5F3F4F9B
:104E2000E7CF8091AD03882341F0853041F0809138
:104E3000E80083FFBECF81E0089582E0089583E01B
:104E40000895FC018091B4039091B50386179707EC
:104E5000A0F06115710529F48091E8008E778093A8
:104E6000E80090E06115710551F4911108C080913E
:104E7000E80082FF35C080E00895BC01F2CF809148
:104E8000AD038823C9F18530C9F18091E80083FD25
:104E900031C08091E80082FDEACF8091E80080FF78
:104EA000E1CF8091F3002091F200382F6115710558
:104EB00019F02830310558F091E02830310509F01B
:104EC00090E08091E8008E778093E800CBCF8491CA
:104ED0008093F1003196615071092F5F3F4FE6CF0B
:104EE0008091AD03882341F0853041F08091E80046
:104EF00083FFBDCF81E0089582E0089583E00895A7
:104F0000982F973028F08F708093E90081E0089502
:104F10009093E900242F762F50E0981731F070918C
:104F2000EC002091ED005091F00021FD02C09F5F48
:104F3000E8CF3091EB003E7F3093EB003091ED00F5
:104F40003D7F3093ED003091EB0031603093EB000A
:104F50007093EC002093ED005093F0002091EE0050
:104F600027FDE5CF80E008958091AE0387FF13C051
:104F70008091E80082FF06C08091E8008B778093E3
:104F8000E80004C08091AD038111F2CF08958091B3
:104F9000AD038823D9F38091E80080FFF8CF80919A
:104FA000E8008E77ECCF2091E4003091E50095E6A3
:104FB000A9012091EC00822F817020FF06C0809112
:104FC000E80080FF06C080E008952091E80022FDFF
:104FD0001AC08091AD03882389F0853089F08091D3
:104FE000EB0085FD0FC02091E4003091E5004217F1
:104FF0005307F9F29150E1F684E0089582E00895B4
:1050000083E0089581E008950E9473280E947B2820
:10501000E0EEF0E0808181608083E8EDF0E0808167
:105020008F77808319BCA7EDB0E08C918E7F8C9335
:1050300080818F7E80831092AC0308950F931F931D
:10504000CF93DF930E9473280E947B28C8EDD0E0A5
:1050500088818F77888388818068888388818F7D25
:10506000888319BC1092AD031092A9031092AB0370
:105070001092AA0300EE10E0F80180818B7F8083FC
:1050800088818160888342E060E080E00E94802720
:10509000E1EEF0E080818E7F8083E2EEF0E08081BF
:1050A00081608083808188608083F80180818E7F29
:1050B0008083888180618883DF91CF911F910F91D8
:1050C0000895E8EDF0E080818F7E8083E7EDF0E0E9
:1050D00080818160808384E082BF81E08093AC0323
:1050E0000E941E280895E8EDF0E080818E7F808385
:1050F0001092E20008951092DA001092E1000895F3
:105100001F920F920FB60F9211242F933F934F933C
:105110005F936F937F938F939F93AF93BF93EF931F
:10512000FF938091E10082FF0BC08091E20082FF3B
:1051300007C08091E1008B7F8093E1000E94DF2A0D
:105140008091DA0080FF19C08091D80080FF15C0DF
:105150008091DA008E7F8093DA008091D90080FF01
:1051600096C080E189BD82E189BD09B400FEFDCF12
:1051700081E08093AD030E94C5248091E10080FF0F
:1051800019C08091E20080FF15C08091E2008E7FFF
:105190008093E2008091E20080618093E200809140
:1051A000D80080628093D80019BC85E08093AD035D
:1051B0000E94D9248091E10084FF2BC08091E200FD
:1051C00084FF27C080E189BD82E189BD89B5982F20
:1051D000917080FFFBCF8091D8008F7D8093D800A5
:1051E0008091E1008F7E8093E1008091E2008F7ECC
:1051F0008093E2008091E20081608093E2008091E0
:10520000A903882309F449C084E08093AD030E9478
:10521000E2248091E10083FF29C08091E20083FFB6
:1052200025C08091E100877F8093E10082E0809338
:10523000AD031092A9038091E1008E7F8093E1007D
:105240008091E2008E7F8093E2008091E200806195
:105250008093E20042E060E080E00E94802780913D
:10526000F00088608093F0000E94D624FF91EF91B7
:10527000BF91AF919F918F917F916F915F914F916E
:105280003F912F910F900FBE0F901F90189519BC52
:105290001092AD030E94D32470CF8091E30087FD6C
:1052A00093E09093AD03B3CF1F920F920FB60F927E
:1052B00011242F933F934F935F936F937F938F931B
:1052C0009F93AF93BF93CF93DF93EF93FF93D091CF
:1052D000E900DF708091EC00C82FC17080FDC0E84C
:1052E0001092E9008091F000877F8093F00078941D
:1052F0000E9498291092E9008091F00088608093C4
:10530000F000CD2BCF70C093E900FF91EF91DF91BA
:10531000CF91BF91AF919F918F917F916F915F914D
:105320004F913F912F910F900FBE0F901F901895A6
:10533000AAE2B0E0EEE9F9E20C94362B8EEA93E0B3
:105340002091F100FC012193CF01F3E0863B9F0700
:10535000B9F70E9402258091E80083FF1EC1809169
:10536000AE039091AF039A3008F017C1E92FF0E037
:10537000E852F44D0C94212B803899F0823809F0D2
:105380000CC18091B2038F70873008F006C1809302
:10539000E9008091EB0085FB882780F91092E900F5
:1053A00006C08091AA039091AB0391118260909105
:1053B000E800977F9093E8008093F1001092F1004D
:1053C0008091E8008E77E5C0882309F4D3C082304D
:1053D00009F0E3C08091B0038111D6C08091B2037F
:1053E0008F702FEF280F263008F0D7C08093E90088
:1053F0002091EB0020FFC8C0933031F48091EB0086
:1054000080628093EB00C0C09091EB00906190931C
:10541000EB0021E030E001C0220F8A95EAF72093EB
:10542000EA001092EA008091EB008860EACF8111D7
:10543000B4C01091B0031F778091E3008078812B76
:105440008093E3008091E800877F8093E8000E94CA
:10545000B4278091E80080FFFCCF8091E300806852
:105460008093E30082E0111183E08093AD0395C047
:105470008058823008F091C08091B0039091B103C0
:105480008C3D23E09207A1F583E08A838AE2898339
:105490004FB7F894DE01139620E03EE051E2E32F8F
:1054A000F0E050935700E49120FF03C0E295EF70C5
:1054B0003F5FEF708E2F90E0EA30C0F0C7968D937B
:1054C0009D932F5F243159F74FBF8091E800877F6C
:1054D0008093E8006AE270E0CE0101960E94C32644
:1054E0008091E8008B778093E80057C0C096E7CFA3
:1054F0006091B2037091B303AE014F5F5F4F0E94A2
:105500000326BC01892B09F448C09091E800977FDD
:105510009093E80089819A810E942127E1CF803809
:10552000E1F58091E800877F8093E8008091A903EE
:105530008093F10045CF811130C09091B00392303B
:1055400060F58091E800877F8093E8009093A9033D
:105550000E94B4278091A903882311F084E005C03C
:105560008091E30087FDFACF81E08093AD030E9434
:10557000ED2413C08091B003813079F481E0933041
:1055800009F080E08093AB031092E9008091E8007D
:10559000877F8093E8000E94B4278091E80083FF12
:1055A0000AC08091E800877F8093E8008091EB003B
:1055B00080628093EB00AA96E3E00C94522B08954E
:1055C000CF938091AD038823A1F0C091E900CF7003
:1055D0009091EC00892F817090FD80E8C82B10928B
:1055E000E9008091E80083FD0E949829CF70C09364
:1055F000E900CF9108950E9404281092AD03089508
:10560000E8EDF0E08081806180838AE18A95F1F79E
:1056100000C08091D9008170089597FB072E16F481
:10562000009407D077FD09D00E945E2B07FC05D0BF
:105630003EF4909581959F4F0895709561957F4FA9
:105640000895EE0FFF1F0590F491E02D09942F921D
:105650003F924F925F926F927F928F929F92AF9202
:10566000BF92CF92DF92EF92FF920F931F93CF934F
:10567000DF93CDB7DEB7CA1BDB0B0FB6F894DEBFE6
:105680000FBECDBF09942A88398848885F846E840C
:105690007D848C849B84AA84B984C884DF80EE8056
:1056A000FD800C811B81AA81B981CE0FD11D0FB65F
:1056B000F894DEBF0FBECDBFED010895AA1BBB1B42
:1056C00051E107C0AA1FBB1FA617B70710F0A61B02
:1056D000B70B881F991F5A95A9F780959095BC0123
:1056E000CD010895FB01DC0104C08D91019080196A
:1056F00021F441505040C8F7881B990B0895FB01D5
:10570000DC0102C001900D9241505040D8F708953D
:10571000F999FECF92BD81BDF89A992780B5089579
:10572000A8E1B0E042E050E00C94BC2B262FF999A0
:10573000FECF92BD81BDF89A019700B4021639F0F0
:105740001FBA20BD0FB6F894FA9AF99A0FBE0895C1
:105750000396272F0E94972B0E94962B252F0E949D
:10576000972B242F0C94972B0196272F0E94972B71
:105770000C94962BDC01CB01FC01F999FECF06C0FD
:10578000F2BDE1BDF89A319600B40D9241505040FF
:10579000B8F70895F894FFCFA208A208D208D2085B
:1057A00077099309FB08FB089E092A0A390A390A76
:1057B000BC29E429CD2AE429CD2A172A382ACD2A62
:0457C0008F2A9B2A67
:1057C4000000510268020000000000000000000018
:1057D40000000000000000005E02750200000000EE
:1057E4000000000000000000000000000000B303FF
:1057F4007F02000000000000000000000000000024
:1058040000000000DA03A302000000000000000012
:10581400000000000000000000000504C9020000B0
:105824000000000000000000000000000000000074
:105834003804FD0200000000000000000000000029
:105844000000000000006B043103000000000000B1
:105854000000000000000000000000009404590350
:105864000000000000000000000000000000000034
:1058740000007F03000000000000000000000000A2
:10588400000000000000391F491F591F00000000DC
:1058940000000000000000000000DC0129003900C5
:1058A40001000001000001000001000001000001EE
:1058B40000001203010000000100000000000000CD
:1058C4000601000000040700000000000028085042
:1058D4003C0714FFFF3E2463244224C024BB24411C
:1058E4002401E200E900EA00B500B600B700CD00EB
:1058F4008301CC008A019201940121022302240233
:105904002502260227022A02B300B4006F007000A9
:10591400818283E200E900EA00B500B600B700CD59
:10592400008301CC008A0192019401210223022404
:10593400022502260227022A02B300B4006F007077
:1059440000818283946697C63435F6F73133323654
:02595400390315
:00000001FF
